:100000000C94E2020C9426030C9440030C94FF021F
:100010000C94FF020C94FF020C94FF020C94FF025C
:100020000C94FF020C94FF020C94FF020C94FF024C
:100030000C94FF020C94FF020C9401030C94FF0239
:100040000C94FF020C94FF020C94FF020C94FF022C
:100050000C94FF020C94FF020C94FF020C94FF021C
:100060000C94FF020C94FF0200000000003864644E
:10007000343434343434F404E4E434343434347410
:1000800074341800000000000000000000000000B0
:100090000000000000F807F8FF0700000000000063
:1000A0000000000000000000000000000000000050
:1000B000000000C03FC0FE1F010000000000000063
:1000C0000000000000000000000000000000000030
:1000D0000020303F303F3F30200000000000000093
:1000E00000000000000000000000000000003824B4
:1000F0007414F404E4F434343434343434343434A0
:1001000074741800000000000000000000000000EF
:10011000807C03F8FFC7C0C0C040408000000000E2
:10012000000000000000000000000000000000C00F
:100130003F80FF7F01010101010103010000000078
:100140000000000000000000000000000020303F20
:10015000203F3F30200000000000000000000000B1
:10016000000000000000000000000000000000701F
:10017000C8C4E4FCF8700080C020D0E8381C0C0C27
:100180000C0CD8B8F0E000000000000000000000F7
:100190000001010180701EC3F80E03000000000082
:1001A000000000010100000000000000000000004D
:1001B00000000000FF003EFFE10000000000000022
:1001C00000E090D0F0E0000000000000000000001F
:1001D0000000000001070C19173F3E3C383030305A
:1001E000381C1F0F07010000000000000000000085
:1001F00000000000E09088C8F8F0E000000000C0B7
:1002000030C8F47418000000000000000000000076
:1002100000000000000103030301806098E47B3CC0
:100220000F030000000000000000000000000000BC
:10023000000000000000C030CCF2391E0701008031
:100240004040C080000000000000000000000000EE
:1002500000000018343B1C0F030000000000070CD6
:100260001C1E1F0F0700000000000000000000041B
:10027000FC04F4F43CEC840000000000C060F4FCDA
:100280001CE4FC1C04000000000000000000E01F53
:10029000E0FF1F01071CE7DEF0381C0701E01FE04C
:1002A000FF1F00000000000000000000807C83FCB5
:1002B0007F03000000000003000000807C83FC7FBF
:1002C0000300000000000000000020383F303F3FE6
:1002D00038200000000000000020383F303F3F3849
:1002E00020000000000000000000C0E0F078383876
:1002F0003878F0E0C0000000F8FFFF0700000000C1
:1003000000000007FFFFF800FFFFFF0000000000F3
:1003100000000000FFFFFF00000F1F3F78F0E0E04B
:10032000E0F0783F1F07000000000000000080C0E0
:10033000F0F8F800000000000000381C0E0F070362
:10034000FFFFFF00000000000000000000000000B0
:10035000FFFFFF00000000000000000000000000A0
:10036000FFFFFF000000000000C0E0F070783838A8
:10037000383878F0E0C000000E0F0F0100000000D8
:10038000000000C1FFFF3F000000000080C0E0F05F
:10039000783E1F0F03010000E0F8FEFFEFE7E1E009
:1003A000E0E0E0E0E0E0E00000C0E0F0783838387D
:1003B0003878F0E0C0800000030303000000808074
:1003C00080C0E0FF7F1F000000000000000003036A
:1003D0000303071FFEFCF000071F3F7C70E0E0E016
:1003E000E0F0707C3F1F03000000000000000000F0
:1003F000C0F0F8F8F800000000000080E0F07C3F5A
:100400000F03FFFFFF000000E0F8FEDFC7C1C0C020
:10041000C0C0FFFFFFC0C0C0010101010101010117
:100420000101FFFFFF0101010080F8F8783838383A
:100430003838383838380000C0FFFFFFE07070707F
:1004400070F0E0E0C0800000030303010000000042
:1004500000000103FFFFFC00071F3F7C70E0E0E0AD
:10046000E0F0787E1F0F01000000C0E0F070383827
:10047000383878F0E0C00000F0FFFF83C0C0E0E053
:10048000E0E0C0C083030300FFFFFF07010100009D
:1004900000010107FFFFFC00000F1F3E78F0E0E0C5
:1004A000E0F0787C3F0F0300383838383838383877
:1004B000383838B8F8F8380000000000000000C0F4
:1004C000F0FC3F0F0300000000000000C0F8FF3FF9
:1004D0000700000000000000000000F8FFFF070018
:1004E00000000000000000000080E0F0F0783838E4
:1004F0003878F0F0C0800000001F7FFFE0C08080EF
:1005000080C0E0FF7F1F0000F0FCFE1E0703030316
:100510000307071EFCF8F000071F3F7C70F0E0E0C7
:10052000E0E0707C3F1F070000C0E0F0F078383852
:100530003878F0E0C0800000FEFFFF0300000000FC
:1005400000000001FFFFF80000070F1F1C3C3838B7
:10055000381C1C0FFFFF7F00061E7E78F0E0E0E0F5
:10056000E070783E1F07000000000000000000005F
:10057000000000000000000000000000000000007B
:10058000000000000000000000000000000000006B
:10059000000000000000000000000000000000005B
:1005A0000000000000000000AE2000B0C8001040B5
:1005B00081FFA1A6A8FFA4D300D5F0D922DA12DBCF
:1005C000208D14AF11241FBECFEFD8E0DEBFCDBF0A
:1005D00011E0A0E0B1E0E6EBFCE102C005900D9275
:1005E000AC30B107D9F721E0ACE0B1E001C01D9219
:1005F000A434B207E1F70E9457080C94590E0C94EA
:1006000000001F920F920FB60F9211248F939F93A9
:10061000AF93BF938091370190913801A091390138
:10062000B0913A010196A11DB11D809337019093BD
:100630003801A0933901B0933A01BF91AF919F91D6
:100640008F910F900FBE0F901F9018951F920F92D1
:100650000FB60F9211248F939F939091340181E0F4
:100660008927809334018BE291E00197F1F700C074
:1006700000009F918F910F900FBE0F901F901895C3
:100680001F920F920FB60F9211248F939F934C9B42
:1006900018C04E9B10C080910201813031F48091CE
:1006A000260190912701059717C080912A0190910A
:1006B0002B0105971BC080912E0190912F010A9765
:1006C0001FC04E9B18C080910201813051F480916F
:1006D000260190912701059690932701809326018A
:1006E00013C080912A0190912B01059690932B01C4
:1006F00080932A0109C080912E0190912F010A96C2
:1007000090932F0180932E019F918F910F900FBE98
:100710000F901F90189592E094BD83E085BD2BEB60
:1007200027BD90936E0091E29093800094E09093A7
:10073000810010928B0095E094B91AB89AE09093DA
:1007400069008DBB78940E9429060C94E505683EEB
:1007500023E0720708F044C06A307105BCF47F934F
:100760006F9323E031E03F932F9325E031E03F93F7
:100770002F939F938F930E946F0B8DB79EB7089610
:100780000FB6F8949EBF0FBE8DBF089564367105F5
:10079000BCF47F936F9324E031E03F932F9325E0E7
:1007A00031E03F932F939F938F930E946F0B8DB7F0
:1007B0009EB708960FB6F8949EBF0FBE8DBF0895E2
:1007C0007F936F9328E031E03F932F939F938F9314
:1007D0000E946F0B0F900F900F900F900F900F9043
:1007E00008950F931F9318161906BCF584369105CA
:1007F00094F5BC01072E000C880B990B0E94760A19
:1008000020E030E04AE754E40E94020B20E030E0B0
:1008100048EC52E40E94CC090E943E0AAB01770FDB
:10082000660B770B8091200190912101A09122010C
:10083000B0912301840F951FA61FB71F00913701A8
:10084000109138012091390130913A0108171907A8
:100850002A073B0710F4289A01C0289840913701D5
:10086000509138016091390170913A0180912001D5
:1008700090912101A0912201B091230188519C4FB8
:10088000AF4FBF4F84179507A607B70740F44093B3
:1008900020015093210160932201709323011F9145
:1008A0000F910895853691053CF084E690E0909391
:1008B0002F0180932E01089597FF05C010922F01FC
:1008C00010922E01089560912E0170912F01072E34
:1008D000000C880B990B0E94760A23E333E343E272
:1008E00050E40E94020B0E94450A60938A0008951A
:1008F000CF92DF92EF92FF92CF93DF930E94000698
:10090000EC018F3F910579F120E030E040E450E4C4
:1009100060913D0170913E0180913F0190914001B5
:100920000E94020B6B017C01BE0180E090E00E94FE
:10093000740A20E030E040E85EE30E94020B9B0175
:10094000AC01C701B6010E94600920E030E040E838
:100950005EE30E94020B60933D0170933E01809321
:100960003F0190934001DF91CF91FF90EF90DF9096
:10097000CF9008950F931F9380913301811115C07B
:100980004E9913C081E0809333018091370190919B
:100990003801A0913901B0913A01809314019093EC
:1009A0001501A0931601B093170190913301913076
:1009B00029F54091370150913801609139017091CA
:1009C0003A01009114011091150120911601309106
:1009D0001701401B510B620B730B4D3A5D406105D3
:1009E000710560F04E9908C08091020181708927DD
:1009F0008093020190933201109233014E9910922C
:100A000033011F910F910895CF93DF9300D01F9270
:100A1000CDB7DEB7809132018130B1F5109232014D
:100A200020E040E060E080E00E94990680910201B1
:100A3000813041F420E040E060E088E690E00E94F0
:100A400033070BC024E040E060E088E690E00E94BD
:100A5000330780913001811102C022E001C023E000
:100A600040E060E688E690E00E94330721E044E041
:100A700060E088E690E00E94330723E044E060E60F
:100A800088E690E00E943307809102018130E1F511
:100A9000809131018130F1F48091370190913801DA
:100AA000A0913901B0913A0140911001509111018A
:100AB0006091120170911301841B950BA60BB70B6B
:100AC000803D9740A105B10528F460912601709101
:100AD00027010CC01092310160913D0170913E01DF
:100AE00080913F01909140010E943E0ACE01019603
:100AF0000E94A7039E012F5F3F4F40E068E288EE0F
:100B000092E00E94060835C080913001813099F44E
:100B100060912A0170912B01CE0101960E94A703DA
:100B20009E012F5F3F4F40E068E288EE92E00E9416
:100B3000060823E018C060913D0170913E0180914C
:100B40003F01909140010E943E0ACE0101960E9411
:100B5000A7039E012F5F3F4F40E068E288EE92E0DE
:100B60000E94060822E040E060E688E690E00E94ED
:100B7000330760912E0170912F01CE0101960E94E2
:100B8000A7039E012F5F3F4F44E068E288EE92E0AA
:100B90000E94060880910001909101010196893818
:100BA00023E1920728F4909301018093000107C08C
:100BB000109201011092000181E0809332010F90A8
:100BC0000F900F90DF91CF91089587B1866087B91C
:100BD0003898419A40980895089528E030E080E0E0
:100BE00096B19170880F892B429A98E29A95F1F705
:100BF000429898E29A95F1F72150310989F70895C2
:100C0000CF93DF93419888E28A95F1F70E94ED0532
:100C1000282F30E0D22FCC270E94ED059E01282BF3
:100C2000419A22FF09C08FEF90E090933C0180939E
:100C30003B018FEF90E00AC083E0369527958A95B7
:100C4000E1F730933C0120933B01C901DF91CF9143
:100C5000089584E38093B800089584EA8093BC00EB
:100C60008091BC0087FFFCCF089584E98093BC008D
:100C700008958093BB0084E88093BC008091BC0001
:100C800087FFFCCF089584EC8093BC008091BC006A
:100C900087FFFCCF8091BB0008950C94430684E845
:100CA0008093BC008091BC0087FFFCCF8091BB008B
:100CB00008950E942D0688E70E94390680E00C9472
:100CC00039060E942D0688E70E94390680E40C94BC
:100CD00039060C9439060C943506CF93DF930E94A5
:100CE0005906C8EAD5E0FE0184910E943906219692
:100CF000F5E0C43CDF07B9F7DF91CF910C943506DE
:100D0000CF93DF93C82FD62F0E9459068D2F87705F
:100D1000806B0E9439068C2F8F700E9439068C2FB1
:100D200082958F7080610E943906DF91CF910C947B
:100D30003506DF92EF92FF920F931F93CF93DF93CD
:100D4000D82FF62EE42ED22EC0E06C2F80E00E9429
:100D500080060E94610601E210E08D2F0E94390694
:100D60008F2D0E9439068E2D0E9439068D2D0E94EE
:100D700039060150110989F70E943506CF5FC83046
:100D800021F7DF91CF911F910F91FF90EF90DF90AE
:100D90000895CF92DF92EF92FF920F931F93CF931C
:100DA0007C0100E010E0C0E06C2F80E00E94800633
:100DB0000E946106C12CD12CF801EC0DFD1DEE0D39
:100DC000FF1D84910E9439068FEFC81AD80A81E866
:100DD000C816D10489F70E943506CF5F00581F4F0F
:100DE000C83011F7CF911F910F91FF90EF90DF90D6
:100DF000CF900895BF92CF92DF92EF92FF920F9320
:100E00001F93CF93DF936C01062FB42E80E0C82F81
:100E1000D22F10E06B2D610F802F0E9480060E9460
:100E20006106E12CF12CF701EC0FFD1FEC0DFD1D0F
:100E300084910E9439068FEFE81AF80A81E4E816D7
:100E4000F10489F70E9435061F5FC05CDF4F143044
:100E500009F7DF91CF911F910F91FF90EF90DF90F5
:100E6000CF90BF900895BF92CF92DF92EF92FF9202
:100E70000F931F93CF93DF936C01062FB42E80E85E
:100E8000289FE001112410E06B2D610F802F0E943C
:100E900080060E946106E12CF12CF701EC0FFD1F8A
:100EA000EC0DFD1D84910E9439068FEFE81AF80AB7
:100EB00081E2E816F10489F70E9435061F5FA096CB
:100EC000143011F7DF91CF911F910F91FF90EF90A8
:100ED000DF90CF90BF9008950F931F93CF93DF9330
:100EE00000EE080F0E94610686E0089F8001112431
:100EF000C0E0D0E098012C0F3D1FE0914201F0913D
:100F00004301E20FF31F84910E9439062196C630F7
:100F1000D10581F7DF91CF911F910F910C94350688
:100F2000CF93DF93EC018991882319F00E946C071D
:100F3000FACFDF91CF9108959093430180934201BE
:100F40006093410108959F92AF92BF92CF92DF923A
:100F5000EF92FF920F931F93CF93DF936C01162FA5
:100F6000042F5901912CF501E90DF11DC081CC230D
:100F700009F440C0C052193710F00E5F10E0602F26
:100F8000812F0E9480060E94610680E1C89FE001D7
:100F90001124E12CF12CFE01EE0DFF1DEC0DFD1DC9
:100FA00084910E9439068FEFE81AF80A88E0E81663
:100FB000F10489F70E94350661E0600F812F0E94DD
:100FC00080060E946106E12CF12C2896FE01EE0DB0
:100FD000FF1DEC0DFD1D84910E9439068FEFE81A6C
:100FE000F80A88E0E816F10489F70E943506185FD0
:100FF0009394B9CFDF91CF911F910F91FF90EF9014
:10100000DF90CF90BF90AF909F9008959F92AF9246
:10101000BF92CF92DF92EF92FF920F931F93CF93E5
:10102000DF937C01B62EA42E8901F801C1918F01B6
:10103000CC2389F1C03229F00C2E000CDD0BE09797
:1010400002C0CAE0D0E086E0CC0FDD1F8A95E1F750
:10105000912C6A2D690D8B2D0E9480060E946106DD
:10106000C12CD12CFE01EC0DFD1DEE0DFF1D849158
:101070000E9439068FEFC81AD80AE0E1CE16D104D3
:1010800089F70E94350693946096F4E09F12E1CFB1
:1010900082E1B80ECACFDF91CF911F910F91FF90DF
:1010A000EF90DF90CF90BF90AF909F9008950E94F7
:1010B0008B032FE78FE492E1215080409040E1F7CD
:1010C00000C000000E946D0620E040E060E080E08B
:1010D0000E94990660E288EE92E00E949C07EE244E
:1010E000E394FF24F394C4E6D0E00CE211E00E9404
:1010F000BA0480912E0190912F010E945204809198
:1011000026019091270120912401309125014091E1
:101110003701509138016091390170913A012817D7
:10112000390771F09093250180932401F0923101E9
:1011300040931001509311016093120170931301B9
:1011400020912A0130912B01809128019091290151
:101150002817390791F08091020181110EC0309358
:10116000290120932801F092300140930C01509303
:101170000D0160930E0170930F0180910C0190910D
:101180000D01A0910E01B0910F015A016B01A81A37
:10119000B90ACA0ADB0AEDEAAE16EDE0BE06C104E2
:1011A000D10470F09091300191709E2590933001A0
:1011B00040930C0150930D0160930E0170930F0149
:1011C000C9010E94F10380912A0190912B0197FFA0
:1011D00005C010922B0110922A0107C08536910597
:1011E00024F0D0932B01C0932A0180912601909185
:1011F000270197FF05C0109227011092260107C012
:101200008D32914024F010932701009326018091A4
:10121000370190913801A0913901B0913A01409184
:101220001C0150911D0160911E0170911F01841BD2
:10123000950BA60BB70B8B3F9105A105B10590F05F
:101240000E9478048091370190913801A091390172
:10125000B0913A0180931C0190931D01A0931E014F
:10126000B0931F018091370190913801A09139010D
:10127000B0913A01409118015091190160911A0101
:1012800070911B01841B950BA60BB70B853F9140FA
:10129000A105B10508F42BCF0E9404058091370108
:1012A00090913801A0913901B0913A0180931801D1
:1012B00090931901A0931A01B0931B0118CF5058B5
:1012C000BB27AA270E9477090C94C80A0E94BA0A71
:1012D00038F00E94C10A20F039F49F3F19F426F437
:1012E0000C94B70A0EF4E095E7FB0C94B10AE92FD1
:1012F0000E94D90A58F3BA17620773078407950743
:1013000020F079F4A6F50C94FB0A0EF4E0950B2E70
:10131000BA2FA02D0B01B90190010C01CA01A00147
:101320001124FF27591B99F0593F50F4503E68F1A2
:101330001A16F040A22F232F342F4427585FF3CFE3
:10134000469537952795A795F0405395C9F77EF4B4
:101350001F16BA0B620B730B840BBAF09150A1F0FD
:10136000FF0FBB1F661F771F881FC2F70EC0BA0F83
:10137000621F731F841F48F4879577956795B7950B
:10138000F7959E3F08F0B0CF9395880F08F0992706
:10139000EE0F9795879508950E94E0090C94C80A6E
:1013A0000E94C10A58F00E94BA0A40F029F45F3F37
:1013B00029F00C94B10A51110C94FC0A0C94B70A50
:1013C0000E94D90A68F39923B1F3552391F3951B31
:1013D000550BBB27AA2762177307840738F09F5F56
:1013E0005F4F220F331F441FAA1FA9F335D00E2EC3
:1013F0003AF0E0E832D091505040E695001CCAF730
:101400002BD0FE2F29D0660F771F881FBB1F2617F2
:1014100037074807AB07B0E809F0BB0B802DBF01C9
:10142000FF2793585F4F3AF09E3F510578F00C9498
:10143000B10A0C94FC0A5F3FE4F3983ED4F386951E
:1014400077956795B795F7959F5FC9F7880F911DB9
:101450009695879597F90895E1E0660F771F881FA5
:10146000BB1F621773078407BA0720F0621B730B58
:10147000840BBA0BEE1F88F7E09508950E94450A89
:101480006894B1110C94FC0A08950E94E10A88F056
:101490009F5798F0B92F9927B751B0F0E1F0660F38
:1014A000771F881F991F1AF0BA95C9F714C0B13079
:1014B00091F00E94FB0AB1E008950C94FB0A672F9B
:1014C000782F8827B85F39F0B93FCCF386957795A8
:1014D0006795B395D9F73EF4909580957095619591
:1014E0007F4F8F4F9F4F0895E89409C097FB3EF4BC
:1014F00090958095709561957F4F8F4F9F4F992361
:10150000A9F0F92F96E9BB279395F69587957795DE
:101510006795B795F111F8CFFAF4BB0F11F460FF9E
:101520001BC06F5F7F4F8F4F9F4F16C0882311F0F6
:1015300096E911C0772321F09EE8872F762F05C00A
:10154000662371F096E8862F70E060E02AF09A95A5
:10155000660F771F881FDAF7880F9695879597F99A
:10156000089597F99F6780E870E060E008959FEF25
:1015700080EC089500240A9416161706180609062A
:10158000089500240A9412161306140605060895F9
:10159000092E0394000C11F4882352F0BB0F40F481
:1015A000BF2B11F460FF04C06F5F7F4F8F4F9F4FC1
:1015B000089557FD9058440F551F59F05F3F71F043
:1015C0004795880F97FB991F61F09F3F79F08795AA
:1015D0000895121613061406551FF2CF4695F1DF33
:1015E00008C0161617061806991FF1CF86957105C3
:1015F000610508940895E894BB2766277727CB01F7
:1016000097F908950E94150B0C94C80A0E94BA0A13
:1016100038F00E94C10A20F0952311F00C94B10A11
:101620000C94B70A11240C94FC0A0E94D90A70F396
:10163000959FC1F3950F50E0551F629FF001729F77
:10164000BB27F00DB11D639FAA27F00DB11DAA1F86
:10165000649F6627B00DA11D661F829F2227B00DD3
:10166000A11D621F739FB00DA11D621F839FA00D5E
:10167000611D221F749F3327A00D611D231F849FAE
:10168000600D211D822F762F6A2F11249F57504005
:101690009AF0F1F088234AF0EE0FFF1FBB1F661F80
:1016A000771F881F91505040A9F79E3F510580F049
:1016B0000C94B10A0C94FC0A5F3FE4F3983ED4F317
:1016C000869577956795B795F795E7959F5FC1F7ED
:1016D000FE2B880F911D9695879597F90895AEE09A
:1016E000B0E0E5E7FBE00C94300E0D891E8986E042
:1016F0008C831A8309838FEF9FE79E838D83AE01CE
:10170000475E5F4F6F89788DCE0101960E94910BE5
:10171000EF81F885E00FF11F10822E96E4E00C9423
:101720004C0EABE0B0E0E7E9FBE00C94220E6C015C
:101730007B018A01FC0117821682838181FFCCC163
:10174000CE0101963C01F6019381F70193FD85914D
:1017500093FF81917F01882309F4BAC1853239F45E
:1017600093FD859193FF81917F01853229F4B60124
:1017700090E00E94880DE7CF912C212C312CFFE1C5
:10178000F315D8F08B3279F038F4803279F0833267
:10179000A1F4232D20611DC08D3261F0803369F4E6
:1017A000232D216016C0832D8260382EE32DE46046
:1017B0003E2E2AC0F32DF8601DC037FC2DC020ED51
:1017C000280F2A3040F08E32B9F436FC81C1232D27
:1017D0002064322E19C036FE06C08AE0989E200D85
:1017E0001124922E11C0EAE02E9E200D1124222EEB
:1017F000F32DF0623F2E08C08C3621F4832D8068D3
:10180000382E02C0883641F4F70193FD859193FF8D
:1018100081917F018111B3CF982F9F7D9554933093
:1018200028F40C5F1F4F9FE399830DC0833631F07E
:10183000833771F0833509F059C021C0F8018081E8
:1018400089830E5F1F4F88248394912C530113C00A
:101850002801F2E04F0E511CF801A080B18036FE45
:1018600003C0692D70E002C06FEF7FEFC5010E94D9
:101870007D0D4C018201F32DFF773F2E16C028010C
:1018800022E0420E511CF801A080B18036FE03C058
:10189000692D70E002C06FEF7FEFC5010E94720DED
:1018A0004C01F32DF0683F2E820133FC1BC0822DCA
:1018B00090E088169906B0F4B60180E290E00E94AC
:1018C000880D2A94F4CFF50137FC859137FE81917C
:1018D0005F01B60190E00E94880D21102A9421E05A
:1018E000821A91088114910471F7E8C0843611F0CE
:1018F000893641F5F80137FE07C060817181828128
:1019000093810C5F1F4F08C060817181072E000C0E
:10191000880B990B0E5F1F4FF32DFF763F2E97FF1D
:1019200009C090958095709561957F4F8F4F9F4F1F
:10193000F0683F2E2AE030E0A3010E94C40D882EFB
:10194000861845C0853731F4232D2F7EB22E2AE02C
:1019500030E025C0932D997FB92E8F36C1F018F451
:10196000883579F0B5C0803719F0883721F0B0C0DC
:10197000E92FE061BE2EB4FE0DC0FB2DF460BF2E3A
:1019800009C034FE0AC0292F2660B22E06C028E006
:1019900030E005C020E130E002C020E132E0F80193
:1019A000B7FE07C060817181828193810C5F1F4FF8
:1019B00006C06081718180E090E00E5F1F4FA3013F
:1019C0000E94C40D882E8618FB2DFF773F2E36FE11
:1019D0000DC0232D2E7FA22E891458F434FE0BC087
:1019E00032FC09C0832D8E7EA82E05C0B82CA32CF6
:1019F00003C0B82C01C0B92CA4FE0FC0FE01E80D35
:101A0000F11D8081803321F49A2D997EA92E09C081
:101A1000A2FE06C0B394B39404C08A2D867809F060
:101A2000B394A3FC11C0A0FE06C0B21488F4280C25
:101A3000922C9B180EC0B21460F4B60180E290E0C4
:101A40000E94880DB394F7CFB21418F42B1802C07B
:101A5000982C212CA4FE10C0B60180E390E00E94D7
:101A6000880DA2FE17C0A1FC03C088E790E002C069
:101A700088E590E0B6010CC08A2D867859F0A1FE69
:101A800002C08BE201C080E2A7FC8DE2B60190E0CB
:101A90000E94880D891438F4B60180E390E00E941A
:101AA000880D9A94F7CF8A94F301E80DF11D808197
:101AB000B60190E00E94880D8110F5CF222009F434
:101AC00042CEB60180E290E00E94880D2A94F6CFC3
:101AD000F6018681978102C08FEF9FEF2B96E2E19E
:101AE0000C943E0EFC010590615070400110D8F737
:101AF000809590958E0F9F1F0895FC016150704056
:101B000001900110D8F7809590958E0F9F1F089532
:101B10000F931F93CF93DF93FB01238121FD03C01C
:101B20008FEF9FEF2CC022FF16C046815781248182
:101B300035814217530744F4A081B1819D012F5F85
:101B40003F4F318320838C93268137812F5F3F4F16
:101B50003783268314C08B01EC01FB010084F185DF
:101B6000E02D0995892BE1F6D80116968D919C916F
:101B70001797019617969C938E931697CE01DF9137
:101B8000CF911F910F910895FA01AA27283051F1A2
:101B9000203181F1E8946F936E7F6E5F7F4F8F4F9E
:101BA0009F4FAF4FB1E03ED0B4E03CD0670F781FFD
:101BB000891F9A1FA11D680F791F8A1F911DA11DE2
:101BC0006A0F711D811D911DA11D20D009F468941B
:101BD0003F912AE0269F11243019305D3193DEF6C3
:101BE000CF010895462F4770405D4193B3E00FD079
:101BF000C9F7F6CF462F4F70405D4A3318F0495D64
:101C000031FD4052419302D0A9F7EACFB4E0A69546
:101C10009795879577956795BA95C9F70097610568
:101C2000710508959B01AC010A2E069457954795BE
:101C300037952795BA95C9F7620F731F841F951FB3
:101C4000A01D08952F923F924F925F926F927F92C4
:101C50008F929F92AF92BF92CF92DF92EF92FF92BC
:101C60000F931F93CF93DF93CDB7DEB7CA1BDB0B68
:101C70000FB6F894DEBF0FBECDBF09942A8839880D
:101C800048885F846E847D848C849B84AA84B98414
:101C9000C884DF80EE80FD800C811B81AA81B98120
:101CA000CE0FD11D0FB6F894DEBF0FBECDBFED0134
:061CB0000895F894FFCF37
:0C1CB60089130120002573202575000013
:00000001FF
